:020000040800F2
:1030000088080020A13200080D3200080F320008A5
:1030100013320008173200081B32000800000000BD
:103020000000000000000000000000002132000845
:103030001F3200080000000023320008253200087B
:1030400027320008293200082B3200082D320008F0
:103050002F320008313200083332000835320008C0
:1030600037320008393200083B3200083D32000890
:103070003F32000841320008433200084532000860
:1030800047320008493200084B3200084D32000830
:103090004F32000851320008533200085532000800
:1030A00057320008593200085B3200085D320008D0
:1030B0005F320008613200086332000865320008A0
:1030C00067320008693200086B3200086D32000870
:1030D0006F32000871320008733200087532000840
:1030E00077320008793200087B3200087D32000810
:1030F0007F320008813200088332000885320008E0
:1031000087320008893200088B3200088D320008AF
:103110008F3200089132000893320008953200087F
:1031200097320008993200089B3200089D3200084F
:1031300000F002F800F03CF80AA090E8000C82448D
:103140008344AAF10107DA4501D100F031F8AFF26A
:10315000090EBAE80F0013F0010F18BFFB1A43F075
:103160000103184784060000A4060000103A24BF9B
:1031700078C878C1FAD8520724BF30C830C144BFDC
:1031800004680C607047000000230024002500261E
:10319000103A28BF78C1FBD8520728BF30C148BFBA
:1031A0000B6070471FB5AFF300801FBD10B510BD99
:1031B00000F039F91146FFF7F5FF00F007F800F0CD
:1031C00057F9FFF7F3FF00F05DF9000070B50D4D02
:1031D00000F0F9F814E04FF400510B4800F0C6F984
:1031E00070B940F20B210A2000F0F7F8002400E04B
:1031F000641CAC42FCDB48F6A0410A2000F0EDF86C
:10320000E9E70000404B4C0000100140704700BF50
:10321000FEE700BFFEE700BFFEE700BFFEE7704726
:1032200070477047704770477047704770477047E6
:1032300070477047704770477047704770477047D6
:1032400070477047704770477047704770477047C6
:1032500070477047704770477047704770477047B6
:1032600070477047704770477047704770477047A6
:103270007047704770477047704770477047704796
:103280007047704770477047704770477047704786
:10329000704770477047704770477047704700002D
:1032A0000348004703480449044A054B704700009F
:1032B00031310008880000208808002088040020A0
:1032C0008804002010B540F2E7304E498880002085
:1032D000C88048804C4800F069FA60204B4908805B
:1032E0000020088101204880474800F029FA082181
:1032F000454800F055FA0121434800F00BFA01213E
:10330000414800F012FA10BD08B54FF40050ADF876
:10331000000004208DF8030069463D4800F0D6F80F
:103320004020ADF8000018208DF8030003208DF830
:1033300002006946374800F0C9F808BD10B5002101
:10334000354800F01BF910BD10B500F039F94FF405
:10335000803000F07DF900F0C3F93049087008466C
:103360000078012826D1102000F098F8022000F003
:10337000A1F8002000F062F9002000F08DF94FF470
:10338000A06000F07FF94FF4E0114FF4803000F0BE
:1033900093F9012000F08AF900BF392000F02EF9DE
:1033A0000028FAD0022000F091F900BF00F03EF9A9
:1033B0000828FBD10121022000F0EAF801211420A5
:1033C00000F0F2F810BD10B5FFF7BEFFFFF7B6FF33
:1033D000FFF79AFFFFF776FF10BD70B505460C4664
:1033E00048F6A040B0FBF4F0401E064908800648AD
:1033F00000F0DCF90548C5800146034800F0A0F95B
:1034000070BD00000C0000200004004016000020E9
:1034100000100140000801400030000800000020BA
:10342000704770477047754600F028F8AE460500B3
:103430006946534620F00700854618B020B5FFF7CF
:1034400031FFBDE820404FF000064FF000074FF07D
:1034500000084FF0000B21F00701AC46ACE8C009B2
:10346000ACE8C009ACE8C009ACE8C0098D467047BB
:103470000446AFF300802046FFF7A3FE00487047E4
:103480002800002003494FF01800ABBE7047000031
:1034900009000000260002007047000004490A6885
:1034A00022F010020A600A6802430A6070470000B6
:1034B0000020024004490A6802F038020A600A68E3
:1034C00002430A607047000000200240F0B5CB784C
:1034D0000022DC0603F00F0301D58C7823430C880F
:1034E0000F2714F0FF0F4FF0010C1CD0D0F8005044
:1034F0000E880CFA02F42640A64210D1960007FA74
:1035000006FE25EA0E0E03FA06F5CE7845EA0E050C
:10351000282E00D14461CE78482E00D10461521C7F
:10352000082AE5D305600A88FF2A1ED945680022CB
:1035300002F108060CFA06F40E882640A64210D1C5
:10354000960007FA06FE25EA0E0E03FA06F5CE7877
:1035500045EA0E05282E00D14461CE78482E00D1D0
:103560000461521C082AE3D34560F0BD024692680C
:1035700000200A4200D0012070470000024A11409A
:10358000014302480160704780FFFF1F08ED00E023
:10359000044A0029D16901D0014300E08143D1618F
:1035A0007047000000100240044A0029916901D0D0
:1035B000014300E081439161704700000010024028
:1035C0000B48016841F0010101604168094A11405E
:1035D00041600168084A11400160016821F48021BE
:1035E00001604268002122F4FE024260816070475F
:1035F000001002400000FFF8FFFFF6FE0346002027
:103600005909094A012901D1116804E0022901D1AF
:10361000116A00E0516A03F01F02012393400B423C
:1036200000D00120704700000010024002484068AE
:1036300000F00C007047000000100240034A51687F
:1036400021F0F0010143516070470000001002407A
:103650000B490A6822F480320A600A68B0F5803F9C
:1036600022F480220A6007D0B0F5802F03D10868C9
:1036700040F4A02008607047086840F48030F9E703
:1036800000100240034A516821F4E0610143516097
:103690007047000000100240034A516821F4605155
:1036A00041EAC000506070470010024001490866BE
:1036B0007047000000004242034B5A68084322F45E
:1036C0007C1210435860704700100240034A516852
:1036D00021F00301014351607047000000100240D7
:1036E00030B50B4C40F2FF153120FFF787FF2070FB
:1036F0006068401C6060207810B96068A842F3D10F
:103700003120FFF77BFF002800D0012030BD0000F2
:10371000040000200029018802D041F0800102E06D
:1037200040F27F321140018070470029018802D0A9
:1037300041F0010102E040F2FE3211400180704789
:10374000F0B5028C22F001020284058C8288038B82
:103750000C8823F070030E8925F002051C434B886A
:103760002E43CF880C4D33438786A84202D00B4DA1
:10377000A8420DD14D8923F008031D4325F004060E
:103780008B8822F4034533438E89CA892E43324302
:10379000828004830384F0BD002C0140003401408A
:1037A000028B22F008020A430283704710B5028898
:1037B00002F08F020280CA884B8804881A43224391
:1037C00002808A88064C012382850A88A0420285ED
:1037D000838202D0034A904201D1097A018610BD4A
:1037E000002C01400034014008380008000000208F
:1037F0000C0000006C310008143800080C00002098
:103800007C08000088310008000000000000000073
:0438100000000000B4
:04000005080031318D
:00000001FF
